:020000040800F2
:1000000000000220710A0008C9080008D108000891
:10001000D9080008E1080008E9080008000000000D
:10002000000000000000000000000000F1080008CF
:10003000FF080008000000000D0900081B09000867
:10004000C10A0008C10A0008C10A0008C10A000864
:10005000C10A0008C10A0008C10A0008C10A000854
:10006000C10A0008C10A0008C10A0008C10A000844
:10007000C10A0008C10A0008C10A0008C10A000834
:10008000C10A0008C10A0008C10A0008C10A000824
:10009000C10A0008C10A0008C10A0008C10A000814
:1000A000C10A0008C10A0008C10A0008C10A000804
:1000B000C10A0008C10A0008C10A0008C10A0008F4
:1000C000C10A0008C10A0008C10A0008C10A0008E4
:1000D000C10A0008C10A0008C10A0008C10A0008D4
:1000E000C10A0008C10A0008C10A0008C10A0008C4
:1000F000C10A0008C10A0008C10A0008C10A0008B4
:10010000C10A0008C10A0008C10A0008C10A0008A3
:10011000C10A0008C10A0008C10A0008C10A000893
:10012000C10A0008C10A0008C10A0008C10A000883
:10013000C10A0008C10A0008C10A0008C10A000873
:10014000C10A0008C10A0008C10A000829090008FC
:10015000C10A0008C10A0008C10A0008C10A000853
:10016000C10A0008C10A0008C10A0008C10A000843
:10017000C10A0008C10A0008C10A00080000000006
:08018000C10A0008C10A0008D1
:1001900010B5054C237833B9044B13B10448AFF3C1
:1001A00000800123237010BD5801002000000000D2
:1001B0004C7E000808B5034B1BB103490348AFF35D
:1001C000008008BD000000005C0100204C7E00089B
:1001D00001F0FF01102A2BDB10F0070F08D010F8F8
:1001E000013B013A8B422DD010F0070F42B3F6D1FC
:1001F000F0B441EA012141EA014122F007047FF015
:1002000000070023F0E80256083C85EA010586EA6B
:10021000010685FA47F5A3FA87F586FA47F6A5FAA7
:1002200087F68EB9EED1F0BC01F0FF0102F00702B3
:1002300032B110F8013B013A83EA010313B1F8D15E
:100240000020704701387047002D06BF354603383F
:10025000073815F0010F07D1013015F4807F02BF78
:10026000013015F4C03F0130F0BC0138704700BFC9
:1002700053B94AB9002908BF00281CBF4FF0FF310D
:100280004FF0FF3000F088B9ADF1080C6DE904CEF5
:1002900000F006F8DDF804E0DDE9022304B0704761
:1002A0002DE9F047089D8E4604468846002B4AD12A
:1002B0008A42174662D9B2FA82F64EB1C6F12003DD
:1002C00001FA06F820FA03F3B74043EA0808B440FD
:1002D0004FEA174E1FFA87FCB8FBFEF1230C0EFB0A
:1002E000118843EA084301FB0CF29A4209D9FB1832
:1002F00001F1FF3080F0EA809A4240F2E780023953
:100300003B449A1AA3B2B2FBFEF00EFB102243EA62
:10031000024300FB0CFC9C4509D9FB1800F1FF329D
:1003200080F0D6809C4540F2D3803B44023840EABE
:100330000140A3EB0C0300211DB1F3400022C5E9ED
:100340000032BDE8F0878B4205D90DB1C5E9000147
:1003500000210846F5E7B3FA83F1002946D1734539
:1003600002D3824200F20581841A6EEB030201205F
:100370009046002DE5D0C5E90048E2E7002A00F0EC
:100380009080B2FA82F6002E40F0A4808A1A030C04
:100390004FEA174E80B2BCB20121B2FBFEFC0EFB4D
:1003A0001C2243EA024304FB0CF29A4207D9FB18D1
:1003B0000CF1FF3802D29A4200F2E080C4469B1A48
:1003C000B3FBFEF20EFB123340EA034302FB04F4DC
:1003D0009C4207D9FB1802F1FF3002D29C4200F286
:1003E000CA8002461B1B42EA0C40A5E7C1F1200669
:1003F0008B4022FA06F71F430EFA01F420FA06F3A7
:100400002EFA06FE4FEA1749234300FA01F81FFAB5
:1004100087FCBEFBF9F01C0C09FB10EE44EA0E440D
:1004200000FB0CFEA64502FA01F209D93C1900F1C5
:10043000FF3A80F09C80A64540F2998002383C4407
:10044000A4EB0E041FFA83FEB4FBF9F309FB13447B
:100450004EEA044403FB0CFCA44508D93C1903F103
:10046000FF3E80F08280A4457FD9023B3C4443EAB2
:100470000040A4EB0C04A0FB02EC64457346E1468B
:1004800062D35FD05DB1B8EB030264EB090404FAF8
:1004900006F622FA01F31E43CC40C5E900640021B0
:1004A0004FE7B1FBF2FC010C41EA0E4180B240EA99
:1004B00001423B4638463C46B846BE462026B1FB84
:1004C000F7F1A2EB080241EA0C4166E7014618E7A2
:1004D00010462CE7C6F120022EFA02F3B740B140D5
:1004E00020FA02F24FEA174E0A43B3FBFEF8BCB201
:1004F0000EFB1833110C41EA034108FB04F9B0402C
:1005000089454FEA104380B23ED9791808F1FF3C83
:1005100001D289451FD8A1EB0901B1FBFEF909FB06
:1005200004F80EFB191192B242EA0142424529D267
:10053000BA1809F1FF31C4D24245C2D2A9F1020171
:100540003A44BEE7F0459DD2BEEB02036CEB070CCC
:100550000138E14696E7A7EB09094944A8F1020CE6
:10056000B1FBFEF909FB04F8DBE773467FE7504671
:1005700066E70846FDE63B44023A33E7ACF1020C7D
:100580003B441CE749469CE7A1EB0901C446B1FB8B
:10059000FEF909FB04F8C4E7704700BF80B584B0DA
:1005A00000AFF860B9607A607B689BB21946B868A2
:1005B00006F064F87B6818461037BD4680BD000021
:1005C00080B582B000AF00F07DFA00F05DF800F079
:1005D000C7F805F095FF4FF47A7000F0E5FA23486C
:1005E00006F0D2FD224806F0CFFD02F079FB03466B
:1005F0001946204806F060FD00237B60002201219F
:100600001D4800F0A3FD002202211B4800F09EFDC2
:100610007B685A1C7A601946184806F04DFD012285
:100620000221154800F092FD4FF47A7000F0BCFAF8
:100630007B685A1C7A601946114806F03DFD00227D
:1006400002210D4800F082FD4FF47A7000F0ACFA00
:100650007B685A1C7A6019460A4806F02DFD4FF453
:100660007A7000F0A1FA00BFC8E700BF647E0008FE
:10067000747E0008947E000800040240AC7E0008EE
:10068000CC7E0008F07E000880B594B000AF07F182
:10069000200330220021184606F056FE07F10C0315
:1006A00000221A605A609A60DA601A610023BB6007
:1006B000294B1B6C284A43F080531364264B1B6C58
:1006C00003F08053BB60BB6800237B60234B1B6837
:1006D000224A43F480431360204B1B6803F4804399
:1006E0007B607B6803233B624FF480337B62012392
:1006F000FB6210233B630223BB634FF48003FB6365
:100700000F233B6490237B640223BB640523FB64BB
:1007100007F12003184601F085FF0346002B01D0A6
:1007200000F0A4F80F23FB6000233B6100237B61F2
:100730000023BB610023FB6107F10C030021184675
:1007400002F0E8F90346002B01D000F08FF800BF5B
:100750005037BD4680BD00BF0038024000700040E9
:1007600080B58AB000AF07F1140300221A605A6006
:100770009A60DA601A6100233B61394B1B6B384A7F
:1007800043F080031363364B1B6B03F080033B6124
:100790003B690023FB60324B1B6B314A43F0010382
:1007A00013632F4B1B6B03F00103FB60FB680023FB
:1007B000BB602B4B1B6B2A4A43F002031363284B8D
:1007C0001B6B03F00203BB60BB6800237B60244B00
:1007D0001B6B234A43F004031363214B1B6B03F091
:1007E00004037B607B6800233B601D4B1B6B1C4A32
:1007F00043F0080313631A4B1B6B03F008033B60C1
:100800003B68C0237B610123BB610023FB610023A4
:100810003B6207F114031946124800F0FBFA01226B
:10082000C021104800F092FC03237B610123BB61CF
:100830000023FB6102233B6207F1140319460A48B7
:1008400000F0E8FA00220121074800F07FFC0022B6
:100850000221054800F07AFC00BF2837BD4680BD64
:1008600000380240000002400004024080B400AFA3
:1008700072B600BF00BFFDE780B483B000AF0023B5
:100880007B60104B5B6C0F4A43F4804353640D4B09
:100890005B6C03F480437B607B6800233B60094B07
:1008A0001B6C084A43F080531364064B1B6C03F027
:1008B00080533B603B6800BF0C37BD465DF8047B4E
:1008C000704700BF0038024080B400AF00BFFDE7B2
:1008D00080B400AF00BFFDE780B400AF00BFFDE70C
:1008E00080B400AF00BFFDE780B400AF00BFFDE7FC
:1008F00080B400AF00BFBD465DF8047B704780B494
:1009000000AF00BFBD465DF8047B704780B400AF08
:1009100000BFBD465DF8047B704780B500AF00F0B6
:1009200023F900BF80BD000080B500AF024800F091
:100930006AFD00BF80BD00BF5C16002080B586B098
:1009400000AFF860B9607A6000237B610AE0AFF322
:1009500000800146BB685A1CBA60CAB21A707B6933
:1009600001337B617A697B689A42F0DB7B681846C9
:100970001837BD4680BD80B483B000AF78604FF0BB
:10098000FF3318460C37BD465DF8047B704780B4D2
:1009900083B000AF786039603B684FF400525A6012
:1009A000002318460C37BD465DF8047B704780B4C1
:1009B00083B000AF7860012318460C37BD465DF860
:1009C000047B704780B485B000AFF860B9607A608E
:1009D000002318461437BD465DF8047B70470000BD
:1009E00080B586B000AF7860144A154BD31A7B618E
:1009F0007B693B61134B1B68002B02D1114B124AE0
:100A00001A60104B1A687B6813443A699A4207D2FD
:100A100006F0E8FC03460C221A604FF0FF3309E0B1
:100A2000084B1B68FB60074B1A687B681344054A38
:100A30001360FB6818461837BD4680BD00000220D1
:100A40000004000074010020B01E002080B400AF3C
:100A5000064BD3F88830054A43F47003C2F8883057
:100A600000BFBD465DF8047B704700BF00ED00E0AD
:100A7000DFF834D0FFF7EAFF0C480D490D4A002398
:100A800002E0D458C4500433C4188C42F9D30A4A43
:100A90000A4C002301E013600432A242FBD306F0AB
:100AA000A7FCFFF78DFD704700000220000000202A
:100AB00058010020B87F000858010020AC1E00201B
:100AC000FEE7000080B500AF0E4B1B680D4A43F4F3
:100AD000007313600B4B1B680A4A43F48063136076
:100AE000084B1B68074A43F480731360032000F02F
:100AF0004FF90F2000F008F8FFF7BEFE002318465C
:100B000080BD00BF003C024080B582B000AF78607D
:100B1000124B1A68124B1B7819464FF47A73B3FBC9
:100B2000F1F3B2FBF3F3184600F067F90346002B2C
:100B300001D001230EE07B680F2B0AD800227968D0
:100B40004FF0FF3000F02FF9064A7B681360002356
:100B500000E0012318460837BD4680BD0000002094
:100B6000080000200400002080B400AF064B1B7872
:100B70001A46064B1B681344044A136000BFBD4667
:100B80005DF8047B704700BF08000020780100205A
:100B900080B400AF034B1B681846BD465DF8047B6C
:100BA000704700BF7801002080B584B000AF786046
:100BB000FFF7EEFFB8607B68FB60FB68B3F1FF3FB7
:100BC00005D00A4B1B781A46FB681344FB6000BF34
:100BD000FFF7DEFF0246BB68D31AFA689A42F7D8DD
:100BE00000BF00BF1037BD4680BD00BF0800002019
:100BF00080B485B000AF78607B6803F00703FB60CA
:100C00000C4BDB68BB60BA684FF6FF031340BB6058
:100C1000FB681A02BB68134343F0BF6343F400331D
:100C2000BB60044ABB68D36000BF1437BD465DF8A3
:100C3000047B704700ED00E080B400AF044BDB683C
:100C40001B0A03F007031846BD465DF8047B704796
:100C500000ED00E080B483B000AF0346FB7197F96C
:100C60000730002B0BDBFB7903F01F02074997F9D4
:100C700007305B09012000FA02F241F8232000BF8F
:100C80000C37BD465DF8047B704700BF00E100E013
:100C900080B483B000AF03463960FB7197F9073029
:100CA000002B0ADB3B68DAB20C4997F907301201D6
:100CB000D2B20B4483F800230AE03B68DAB2084959
:100CC000FB7903F00F03043B1201D2B20B441A76F6
:100CD00000BF0C37BD465DF8047B704700E100E0C3
:100CE00000ED00E080B489B000AFF860B9607A60D0
:100CF000FB6803F00703FB61FB69C3F10703042BE7
:100D000028BF0423BB61FB690433062B02D9FB69AE
:100D1000033B00E000237B614FF0FF32BB6902FA26
:100D200003F3DA43BB681A407B699A404FF0FF3106
:100D30007B6901FA03F3D9437B680B4013431846E0
:100D40002437BD465DF8047B7047000080B582B053
:100D500000AF78607B68013BB3F1807F01D3012352
:100D60000FE00A4A7B68013B53600F214FF0FF30D0
:100D7000FFF78EFF054B00229A60044B07221A6092
:100D8000002318460837BD4680BD00BF10E000E0D4
:100D900080B582B000AF78607868FFF729FF00BFA8
:100DA0000837BD4680BD80B586B000AF0346B96048
:100DB0007A60FB7300237B61FFF73EFF78617A68FE
:100DC000B9687869FFF78EFF024697F90F30114630
:100DD0001846FFF75DFF00BF1837BD4680BD80B5E0
:100DE00082B000AF0346FB7197F907301846FFF752
:100DF00031FF00BF0837BD4680BD80B582B000AF6F
:100E000078607868FFF7A2FF034618460837BD46AA
:100E100080BD000080B489B000AF786039600023E5
:100E20007B6100233B610023BB610023FB616BE11D
:100E30000122FB6902FA03F37B613B681B687A6954
:100E400013403B613A697B699A4240F05A813B68A2
:100E50005B6803F00303012B05D03B685B6803F07C
:100E60000303022B30D17B689B68BB61FB695B008D
:100E7000032202FA03F3DB43BA691340BB613B6808
:100E8000DA68FB695B0002FA03F3BA691343BB61DA
:100E90007B68BA699A607B685B68BB610122FB6909
:100EA00002FA03F3DB43BA691340BB613B685B683A
:100EB0001B0903F00102FB6902FA03F3BA69134349
:100EC000BB617B68BA695A603B685B6803F00303E7
:100ED000032B17D07B68DB68BB61FB695B000322D7
:100EE00002FA03F3DB43BA691340BB613B689A68BB
:100EF000FB695B0002FA03F3BA691343BB617B68C9
:100F0000BA69DA603B685B6803F00303022B23D104
:100F1000FB69DA087B68083253F82230BB61FB6951
:100F200003F007039B000F2202FA03F3DB43BA69C5
:100F30001340BB613B681A69FB6903F007039B0020
:100F400002FA03F3BA691343BB61FB69DA087B68F1
:100F50000832B96943F822107B681B68BB61FB69E2
:100F60005B00032202FA03F3DB43BA691340BB615F
:100F70003B685B6803F00302FB695B0002FA03F362
:100F8000BA691343BB617B68BA691A603B685B68E6
:100F900003F44033002B00F0B4800023FB60604B6F
:100FA0005B6C5F4A43F4804353645D4B5B6C03F4BA
:100FB0008043FB60FB685B4AFB699B08023352F885
:100FC0002330BB61FB6903F003039B000F2202FA8D
:100FD00003F3DB43BA691340BB617B68524A934217
:100FE0002BD07B68514A934225D07B68504A93426C
:100FF0001FD07B684F4A934219D07B684E4A934278
:1010000013D07B684D4A93420DD07B684C4A934283
:1010100007D07B684B4A934201D107230EE0082397
:101020000CE006230AE0052308E0042306E003237E
:1010300004E0022302E0012300E00023FA6902F049
:10104000030292009340BA691343BB613549FB69BF
:101050009B080233BA6941F823203B4B9B68BB6174
:101060003B69DB43BA691340BB613B685B6803F4CF
:101070008013002B03D0BA693B691343BB61324A2A
:10108000BB699360304BDB68BB613B69DB43BA698A
:101090001340BB613B685B6803F40013002B03D073
:1010A000BA693B691343BB61274ABB69D360264BCE
:1010B0005B68BB613B69DB43BA691340BB613B685A
:1010C0005B6803F40033002B03D0BA693B69134318
:1010D000BB611D4ABB6953601B4B1B68BB613B690D
:1010E000DB43BA691340BB613B685B6803F4803340
:1010F000002B03D0BA693B691343BB61124ABB6939
:101100001360FB690133FB61FB690F2B7FF690AE27
:1011100000BF00BF2437BD465DF8047B704700BFA9
:101120000038024000380140000002400004024044
:1011300000080240000C024000100240001402406F
:1011400000180240001C0240003C014080B483B003
:1011500000AF78600B467B8013467B707B78002B5A
:1011600003D07A887B689A6103E07B881A047B68E5
:101170009A6100BF0C37BD465DF8047B704780B5AF
:1011800086B002AF78607B68002B01D1012301E1BA
:101190007B681B68BB607B6893F89534DBB2002BDF
:1011A00006D17B68002283F89424786805F0AEFBB2
:1011B0007B68032283F89524BB68B3F1A04F02D16A
:1011C0007B6800229A717B681B68184601F071FFEA
:1011D0007B6818687B681A7C8DF8002004330ECB7E
:1011E00001F050FE0346002B05D07B68022283F8F5
:1011F00095240123CEE07B681B680021184601F08E
:1012000069FF0346002B05D07B68022283F89524F2
:101210000123BFE00023FB734AE0FA7B79681346A1
:10122000DB0013449B000B44153301221A70FA7B38
:1012300079681346DB0013449B000B441433FA7B9C
:101240001A70FA7BFB7B98B279681346DB00134473
:101250009B000B442E3302461A80FA7B79681346B2
:10126000DB0013449B000B44183300221A70FA7BF6
:1012700079681346DB0013449B000B441C330022A7
:101280001A60FA7B79681346DB0013449B000B4419
:10129000203300221A60FA7B79681346DB0013447E
:1012A0009B000B44243300221A60FB7B0133FB7349
:1012B0007B681B79FA7B9A42AFD30023FB7344E02F
:1012C000FA7B79681346DB0013449B000B4403F25E
:1012D000552300221A70FA7B79681346DB00134409
:1012E0009B000B4403F51573FA7B1A70FA7B79683F
:1012F0001346DB0013449B000B4403F516730022D6
:101300001A70FA7B79681346DB0013449B000B4488
:1013100003F5177300221A60FA7B79681346DB0025
:1013200013449B000B4403F5187300221A60FA7BE8
:1013300079681346DB0013449B000B4403F51973D3
:1013400000221A60FB7B0133FB737B681B79FA7BFD
:101350009A42B5D37B6818687B681A7C8DF80020A8
:1013600004330ECB01F002FF0346002B05D07B684F
:10137000022283F8952401230CE07B6800225A7432
:101380007B68012283F895247B681B68184602F06D
:101390004CFF002318461037BD4680BD80B584B091
:1013A00000AF78607B681B68FB607B6893F89434BF
:1013B000012B01D1022322E07B68012283F89424CF
:1013C000FB68DB6803F04003002B09D07B685B7B84
:1013D000012B05D1FB689B6B43F48032FB689A6359
:1013E0007B681B68184601F053FE7B681B68184633
:1013F00002F0FAFE7B68002283F89424002318464A
:101400001037BD4680BD90B58DB000AF78607B6869
:101410001B683B623B6AFB617B681B68184602F0F5
:10142000B8FF0346002B40F08C847B681B6818468D
:1014300002F01CFF0346002B00F08284FB6903F5D9
:1014400000639B681B0AC3F30D027B68C3F8D424B6
:101450007B681B68184602F009FF034603F002038D
:10146000022B07D17B681B685A697B681B6802F0F6
:1014700002025A617B681B68184602F0F7FE0346B9
:1014800003F01003102B61D17B681B689A697B689D
:101490001B6822F010029A613B6A1B6ABB61BB6940
:1014A00003F00F021346DB0013449B0003F5147393
:1014B0007A68134404337B61BB6903F4F013B3F51A
:1014C000802F24D1BA6947F6F0731340002B35D032
:1014D0007B69D968BB691B099BB2C3F30A039BB242
:1014E0001A46386A02F02EFD7B69DA68BB691B096F
:1014F000C3F30A031A447B69DA607B695A69BB69E2
:101500001B09C3F30A031A447B695A6116E0BB69DD
:1015100003F4F013B3F5402F10D17B6803F29C4322
:1015200008221946386A02F00DFD7B695A69BB69C9
:101530001B09C3F30A031A447B695A617B681B6861
:101540009A697B681B6842F010029A617B681B688D
:10155000184602F08BFE034603F40023B3F5002F78
:1015600040F0A78000237B627B681B68184602F06E
:1015700090FEB86299E0BB6A03F00103002B00F013
:101580008E807B681B687A6AD2B21146184602F0D8
:10159000B4FE38613B6903F00103002B0CD07B6A79
:1015A0005A01FB69134403F530631A460123936023
:1015B000796A786800F0A4FE3B6903F00803002B09
:1015C0000CD07B6A5A01FB69134403F530631A4659
:1015D00008239360796A786800F07AFF3B6903F02A
:1015E0001003002B08D07B6A5A01FB69134403F5F2
:1015F00030631A46102393603B6903F00203002B0B
:1016000030D03B6A5B6903F08003802B09D1FB6912
:1016100003F500635B68FA6902F5006243F48063D6
:1016200053607A6A1346DB0013449B0003F514737E
:101630007A68134404337B617B69DB78012B08D122
:101640007B690022DA707B6ADBB21946786805F0A4
:1016500063FA7B6A5A01FB69134403F530631A4647
:10166000022393603B6903F02003002B08D07B6AC0
:101670005A01FB69134403F530631A462023936033
:101680003B6903F40053002B09D07B6A5A01FB69C4
:10169000134403F530631A464FF4005393607B6A9A
:1016A00001337B62BB6A5B08BB62BB6A002B7FF4C1
:1016B00062AF7B681B68184602F0D8FD034603F44E
:1016C0008023B3F5802F40F0DB807B681B681846D1
:1016D00002F0F9FDB86200237B62CDE0BB6A03F043
:1016E0000103002B00F0C2807B681B687A6AD2B2CB
:1016F0001146184602F01FFE38613B6903F00103F2
:10170000002B57D07B6A03F00F03012202FA03F388
:10171000FB60FB6903F500635A6BFB68DB43F96907
:1017200001F5006113404B637B6A5A01FB69134466
:1017300003F510631A46012393607B689B79012BA4
:1017400032D179687A6A1346DB0013449B000B445C
:101750002033196878687A6A1346DB0013449B00CB
:1017600003441C331B68194478687A6A1346DB000B
:1017700013449B000344203319607B6A002B13D170
:1017800079687A6A1346DB0013449B000B442433C8
:101790001B68002B08D17B6818687B6803F29C43A8
:1017A0001A46012102F026FE7B6ADBB219467868F0
:1017B00005F02DF93B6903F00803002B08D07B6A84
:1017C0005A01FB69134403F510631A46082393601A
:1017D0003B6903F01003002B08D07B6A5A01FB69B8
:1017E000134403F510631A46102393603B6903F01A
:1017F0004003002B08D07B6A5A01FB69134403F5B0
:1018000010631A46402393603B6903F00203002BE8
:1018100023D0796A386A01F00DFE7A6A1346DB003C
:1018200013449B0010337A68134404337B617B6953
:10183000DB78012B08D17B690022DA707B6ADBB28E
:101840001946786805F07AF97B6A5A01FB691344F6
:1018500003F510631A46022393603B6903F080038B
:10186000002B03D0796A786800F0BDFC7B6A0133F5
:101870007B62BB6A5B08BB62BB6A002B7FF42EAF46
:101880007B681B68184602F0F1FC034603F0004336
:10189000B3F1004F22D1FB6903F500635B68FA697D
:1018A00002F5006223F0010353607B6893F8CC34A7
:1018B000012B08D17B68002283F8CC2400217868B2
:1018C00000F0A4FE02E0786805F018F97B681B6858
:1018D0005A697B681B6802F000425A617B681B688A
:1018E000184602F0C3FC034603F40063B3F5006F2F
:1018F00012D1FB6903F500639B6803F00103012B20
:1019000002D1786805F0D4F87B681B685A697B6857
:101910001B6802F400625A617B681B68184602F07B
:10192000A5FC034603F48053B3F5805F40F0B78015
:10193000FB6903F500635B68FA6902F5006223F056
:10194000010353607B681B681021184601F072FD8B
:101950000023FB6246E0FB6A5A01FB69134403F56E
:1019600010631A464FF67F339360FB6A5A01FB6996
:10197000134403F510631B68FA6A5101FA690A44BB
:1019800002F5106223F400131360FB6A5A01FB692D
:10199000134403F530631A464FF67F339360FB6AB6
:1019A0005A01FB69134403F530631B68FA6A51015D
:1019B000FA690A4402F5306223F400131360FB6AEB
:1019C0005A01FB69134403F530631B68FA6A51013D
:1019D000FA690A4402F5306243F000631360FB6A5F
:1019E0000133FB627B681B791A46FB6A9342B2D3D0
:1019F000FB6903F50063DB69FA6902F5006243F0F5
:101A00000113D3617B68DB7B002B16D0FB6903F5E8
:101A10000063D3F88430FA6902F5006243F00B03E7
:101A2000C2F88430FB6903F500635B6CFA6902F568
:101A3000006243F00B03536415E0FB6903F5006398
:101A40005B69FA6902F5006243F4005343F02B032B
:101A50005361FB6903F500631B69FA6902F50062D3
:101A600043F00B031361FB6903F500631B68FA691C
:101A700002F5006223F4FE6313607B6818687B68DC
:101A800099797B6803F29C431A4602F0B3FC7B68A9
:101A90001B685A697B681B6802F480525A617B6834
:101AA0001B68184602F0E2FB034603F40053B3F54B
:101AB000005F23D17B681B68184602F078FC7B68C6
:101AC0001B68184601F02FFD03461A467B68DA7141
:101AD0007B681C6801F0CAF901467B68DB791A460D
:101AE000204601F033FA786804F0B9FF7B681B6880
:101AF0005A697B681B6802F400525A617B681B6854
:101B0000184602F0B3FB034603F00803082B0AD182
:101B1000786804F096FF7B681B685A697B681B68CD
:101B200002F008025A617B681B68184602F09EFBAF
:101B3000034603F08003802B23D13B6A9B6923F08B
:101B400080023B6A9A6101237B6214E079687A6AB9
:101B50001346DB0013449B000B4403F257231B780E
:101B6000012B05D17B6ADBB21946786800F00AFBCD
:101B70007B6A01337B627B681B791A467B6A9342DE
:101B8000E4D37B681B68184602F070FB034603F43D
:101B90008013B3F5801F3CD101237B622BE07B6A6D
:101BA0005A01FB69134403F510631B68BB61796834
:101BB0007A6A1346DB0013449B000B4418331B78EE
:101BC000012B15D1BB69002B12DA79687A6A1346AA
:101BD000DB0013449B000B44173301221A707B6A0D
:101BE000DBB263F07F03DBB21946786800F0CAFA13
:101BF0007B6A01337B627B681B791A467B6A93425E
:101C0000CDD37B681B685A697B681B6802F480121D
:101C10005A617B681B68184602F028FB034603F4F0
:101C20000013B3F5001F56D101237B6245E07B6AA8
:101C30005A01FB69134403F530631B68BB61796883
:101C40007A6A1346DB0013449B000B4403F51673BA
:101C50001B78012B2ED1BB69002B2BDABB691A0C28
:101C60007B68D3F8D434534003F00103002B21D117
:101C700079687A6A1346DB0013449B000B4403F235
:101C8000572301221A703B6A9B6943F080023B6A2A
:101C90009A613B6A5B6903F08003002B0AD1FB6900
:101CA00003F500635B68FA6902F5006243F40073B0
:101CB000536008E07B6A01337B627B681B791A46BC
:101CC0007B6A9342B3D37B681B685A697B681B6845
:101CD00002F400125A617B681B68184602F0C6FACB
:101CE000034603F08043B3F1804F0AD1786804F0D3
:101CF00037FF7B681B685A697B681B6802F080426B
:101D00005A617B681B68184602F0B0FA034603F07C
:101D10000403042B15D17B681B685B68BB61BB693E
:101D200003F00403002B02D0786804F027FF7B68DF
:101D30001B6859687B681B68BA690A435A6000E0EF
:101D400000BF3437BD4690BD80B582B000AF78602B
:101D50000B46FB707B6893F89434012B01D102236E
:101D600012E07B68012283F894247B68FA785A7425
:101D70007B681B68FA781146184602F00FFA7B68F8
:101D8000002283F89424002318460837BD4680BDFE
:101D900080B584B000AF7860084611461A46034605
:101DA000FB700B463B801346BB700023FB7297F918
:101DB0000330002B0FDAFB7803F00F021346DB0031
:101DC00013449B0010337A6813440433FB60FB68B0
:101DD00001225A700FE0FB7803F00F021346DB007C
:101DE00013449B0003F514737A6813440433FB60B7
:101DF000FB6800225A70FB7803F00F03DAB2FB682D
:101E00001A703B88C3F30A02FB689A60FB68BA78D1
:101E10001A71FB685B78002B04D0FB681B781A46AC
:101E2000FB685A83BB78022B02D1FB6800225A71EF
:101E30007B6893F89434012B01D102230EE07B6878
:101E4000012283F894247B681B68F968184601F026
:101E50008FFB7B68002283F89424FB7A18461037A6
:101E6000BD4680BD80B584B000AF78600B46FB7086
:101E700097F90330002B0FDAFB7803F00F021346BB
:101E8000DB0013449B0010337A6813440433FB6077
:101E9000FB6801225A700FE0FB7803F00F02134633
:101EA000DB0013449B0003F514737A681344043376
:101EB000FB60FB6800225A70FB7803F00F03DAB274
:101EC000FB681A707B6893F89434012B01D10223CC
:101ED0000EE07B68012283F894247B681B68F96814
:101EE000184601F0CDFB7B68002283F89424002380
:101EF00018461037BD4680BD80B586B000AFF8608B
:101F00007A603B600B46FB72FB7A03F00F021346CC
:101F1000DB0013449B0003F51473FA681344043385
:101F20007B617B697A68DA607B693A681A617B69F0
:101F300000225A617B6900225A70FB7A03F00F037A
:101F4000DAB27B691A70FB689B79012B02D17A683F
:101F50007B69DA61FB681868FB689B791A467969C6
:101F600001F06AFC002318461837BD4680BD80B4D6
:101F700083B000AF78600B46FB70FB7803F00F0274
:101F800079681346DB0013449B000B4403F51A7376
:101F90001B6818460C37BD465DF8047B704780B55A
:101FA00086B000AFF8607A603B600B46FB72FB7A4C
:101FB00003F00F021346DB0013449B001033FA6852
:101FC000134404337B617B697A68DA607B693A6821
:101FD0001A617B6900225A617B6901225A70FB7A7F
:101FE00003F00F03DAB27B691A70FB689B79012B4F
:101FF00002D17A687B69DA61FB681868FB689B79B3
:102000001A46796901F018FC002318461837BD46B6
:1020100080BD80B584B000AF78600B46FB70FB7864
:1020200003F00F037A681279934201D901234FE03C
:1020300097F90330002B0FDAFB7803F00F021346F9
:10204000DB0013449B0010337A6813440433FB60B5
:10205000FB6801225A700DE0FA781346DB00134446
:102060009B0003F514737A6813440433FB60FB6828
:1020700000225A70FB6801229A70FB7803F00F036C
:10208000DAB2FB681A707B6893F89434012B01D1A3
:1020900002231DE07B68012283F894247B681B687F
:1020A000F968184601F0A6FFFB7803F00F03002B38
:1020B00009D17B6818687B6899797B6803F29C4337
:1020C0001A4602F097F97B68002283F894240023D3
:1020D00018461037BD4680BD80B584B000AF78602B
:1020E0000B46FB70FB7803F00F037A68127993427A
:1020F00001D9012342E097F90330002B0FDAFB7876
:1021000003F00F021346DB0013449B0010337A6880
:1021100013440433FB60FB6801225A700FE0FB7824
:1021200003F00F021346DB0013449B0003F5147306
:102130007A6813440433FB60FB6800225A70FB6822
:1021400000229A70FB7803F00F03DAB2FB681A7072
:102150007B6893F89434012B01D102230EE07B6855
:10216000012283F894247B681B68F968184601F003
:10217000AFFF7B68002283F89424002318461037B1
:10218000BD4680BD80B584B000AF78600B46FB7063
:1021900097F90330002B0CDAFB7803F00F0213469B
:1021A000DB0013449B0010337A6813440433FB6054
:1021B0000CE0FB7803F00F021346DB0013449B0096
:1021C00003F514737A6813440433FB607B681B685F
:1021D000F968184601F0CEFD0346FB72FB7A1846FB
:1021E0001037BD4680BD80B58AB002AF78603960D7
:1021F0007B681B687B617B693B613A681346DB0047
:1022000013449B0010337A6813440433FB60FB686B
:102210005A69FB681B699A4201D901236BE0FB688C
:102220001A69FB685B69D31AFB61FB689B68FA69F2
:102230009A4202D9FB689B68FB61FB6903339B08E8
:10224000BB612AE0FB681A69FB685B69D31AFB6112
:10225000FB689B68FA699A4202D9FB689B68FB613C
:10226000FB6903339B08BB61FB68D9683B68DAB242
:10227000FB6998B27B689B7900930346786901F00B
:1022800023FEFB68DA68FB691A44FB68DA60FB68C6
:102290005A69FB691A44FB685A613B685A013B69F9
:1022A000134403F510639B699BB2BA699A4209D83B
:1022B000FB685A69FB681B699A4203D2FB681B6979
:1022C000002BBFD1FB681A69FB685B699A4211D881
:1022D0003B6803F00F03012202FA03F3BB603B6982
:1022E00003F500635A6BBB68DB43396901F5006194
:1022F00013404B63002318462037BD4680BD0000C5
:1023000080B588B000AF786039607B681B68FB617E
:10231000FB69BB61FB693C3304331B687B613B6831
:102320005A01BB69134403F530639B683B617B68CA
:102330009B79012B7BD13B6903F00803002B15D05F
:102340007B69614A934240F2B9803B6903F40043E0
:10235000002B00F0B3803B685A01BB69134403F5BE
:1023600030631A464FF400439360A7E03B6903F0E3
:102370002003002B09D03B685A01BB69134403F5C5
:1023800030631A462023936098E03B6903F02803EA
:10239000002B40F093807B694B4A93420FD93B69F5
:1023A00003F40043002B0AD03B685A01BB69134475
:1023B00003F530631A464FF4004393607EE03A68B9
:1023C0001346DB0013449B0003F514737A6813442F
:1023D0000433FB60FB681A6A3B685901BB690B4414
:1023E00003F530631B69C3F31203D21AFB685A6109
:1023F0003B68002B14D1FB681B69002B09D17B685B
:1024000018687B6803F29C431A46012101F0F2FF31
:1024100006E0FB68DA68FB685B691A44FB68DA600F
:102420003B68DBB21946786804F0D6FA46E07B696F
:10243000264A934224D13B6903F40043002B0AD07F
:102440003B685A01BB69134403F530631A464FF4E5
:102450000043936032E03B6903F02003002B08D077
:102460003B685A01BB69134403F530631A462023C5
:1024700093603B68DBB21946786804F0ADFA1DE062
:102480003B68002B14D179683A681346DB0013448B
:102490009B000B4403F519731B68002B08D17B6864
:1024A00018687B6803F29C431A46002101F0A2FFE2
:1024B0003B68DBB21946786804F08EFA00231846B0
:1024C0002037BD4680BD00BF0A30544F0A31544FFB
:1024D00080B586B000AF786039607B681B687B612F
:1024E0007B693B617B693C3304331B68FB603B6861
:1024F0005A013B69134403F530639B68BB60FB687A
:10250000154A93420ED9BB6803F40043002B09D04F
:102510003B685A013B69134403F530631A464FF494
:1025200000439360786804F045FAFB680A4A9342D6
:102530000CD97B689B79012B08D17B6818687B6874
:1025400003F29C431A46012101F054FF0023184670
:102550001837BD4680BD00BF0A30544F80B485B0E7
:1025600000AF78600B46FB7013463B807B681B68AE
:102570005B6ABB60FB78002B07D13B8819047B6842
:102580001B68BA680A439A6228E07B681B689B6AEA
:102590001B0CBA681344BB600023FB730DE07B681F
:1025A0001A68FB7B40339B0013445B681B0CBA68C2
:1025B0001344BB60FB7B0133FB73FA7BFB78013B6D
:1025C0009A42ECD33B8818047B681968FB78013B7E
:1025D000BA68024340339B000B445A6000231846FC
:1025E0001437BD465DF8047B704780B483B000AFFC
:1025F00078600B467B807B681B687A885A62002370
:1026000018460C37BD465DF8047B704780B483B034
:1026100000AF78600B46FB7000BF0C37BD465DF81D
:10262000047B704780B586B000AF78607B68002B74
:1026300001D1012367E27B681B6803F00103002BD3
:1026400075D0884B9B6803F00C03042B0CD0854B92
:102650009B6803F00C03082B12D1824B5B6803F4D8
:102660008003B3F5800F0BD17E4B1B6803F400335E
:10267000002B5BD07B685B68002B57D1012342E2C3
:102680007B685B68B3F5803F06D1764B1B68754A63
:1026900043F4803313601DE07B685B68B3F5A02FC3
:1026A0000CD1704B1B686F4A43F4802313606D4B51
:1026B0001B686C4A43F4803313600BE0694B1B6862
:1026C000684A23F480331360664B1B68654A23F421
:1026D000802313607B685B68002B13D0FEF758FAE9
:1026E000386108E0FEF754FA02463B69D31A642BBE
:1026F00001D9032307E25B4B1B6803F40033002B73
:10270000F0D014E0FEF744FA386108E0FEF740FA32
:1027100002463B69D31A642B01D90323F3E1514BE1
:102720001B6803F40033002BF0D100E000BF7B688E
:102730001B6803F00203002B63D04A4B9B6803F035
:102740000C03002B0BD0474B9B6803F00C03082BAA
:102750001CD1444B5B6803F48003002B16D1414B22
:102760001B6803F00203002B05D07B68DB68012B9C
:1027700001D00123C7E13B4B1B6823F0F8027B68C3
:102780001B69DB00374913430B603AE07B68DB6869
:10279000002B20D0344B01221A60FEF7F9F9386182
:1027A00008E0FEF7F5F902463B69D31A022B01D97E
:1027B0000323A8E12B4B1B6803F00203002BF0D08E
:1027C000284B1B6823F0F8027B681B69DB00254956
:1027D00013430B6015E0244B00221A60FEF7D8F972
:1027E000386108E0FEF7D4F902463B69D31A022BA0
:1027F00001D9032387E11B4B1B6803F00203002B65
:10280000F0D17B681B6803F00803002B36D07B688F
:102810005B69002B16D0154B01221A60FEF7B8F940
:10282000386108E0FEF7B4F902463B69D31A022B7F
:1028300001D9032367E10B4B5B6F03F00203002B0D
:10284000F0D01BE0094B00221A60FEF7A1F93861B5
:102850000EE0FEF79DF902463B69D31A022B07D919
:10286000032350E10038024000004742800E4742F7
:10287000884B5B6F03F00203002BEAD17B681B6877
:1028800003F00403002B00F097800023FB75814BBD
:102890001B6C03F08053002B0FD10023BB607D4BDA
:1028A0001B6C7C4A43F0805313647A4B1B6C03F01F
:1028B0008053BB60BB680123FB75774B1B6803F437
:1028C0008073002B18D1744B1B68734A43F48073D8
:1028D0001360FEF75DF9386108E0FEF759F902462A
:1028E0003B69D31A022B01D903230CE16A4B1B6805
:1028F00003F48073002BF0D07B689B68012B06D11A
:10290000644B1B6F634A43F0010313671CE07B6851
:102910009B68052B0CD15F4B1B6F5E4A43F0040391
:1029200013675C4B1B6F5B4A43F0010313670BE0BB
:10293000584B1B6F574A23F001031367554B1B6F0E
:10294000544A23F0040313677B689B68002B15D05F
:10295000FEF71EF938610AE0FEF71AF902463B69F4
:10296000D31A41F28832934201D90323CBE0494B79
:102970001B6F03F00203002BEED014E0FEF708F902
:1029800038610AE0FEF704F902463B69D31A41F2C6
:102990008832934201D90323B5E03E4B1B6F03F00D
:1029A0000203002BEED1FB7D012B05D1394B1B6CB3
:1029B000384A23F0805313647B689B69002B00F036
:1029C000A180344B9B6803F00C03082B5CD07B6820
:1029D0009B69022B41D1314B00221A60FEF7D8F8D7
:1029E000386108E0FEF7D4F802463B69D31A022B9F
:1029F00001D9032387E0274B1B6803F00073002BEA
:102A0000F0D17B68DA697B681B6A1A437B685B6A72
:102A10009B011A437B689B6A5B08013B1B041A43BA
:102A20007B68DB6A1B061B4913434B601B4B01226F
:102A30001A60FEF7ADF8386108E0FEF7A9F8024623
:102A40003B69D31A022B01D903235CE0114B1B68AD
:102A500003F00073002BF0D054E0104B00221A60FA
:102A6000FEF796F8386108E0FEF792F802463B69F7
:102A7000D31A022B01D9032345E0064B1B6803F050
:102A80000073002BF0D13DE07B689B69012B07D1DF
:102A9000012338E0003802400070004060004742E7
:102AA0001B4B5B68FB607B689B69012B28D0FB6834
:102AB00003F480027B68DB699A4221D1FB6803F052
:102AC0003F027B681B6A9A421AD1FA6847F6C073C4
:102AD00013407A68526A9201934211D1FB6803F461
:102AE00040327B689B6A5B08013B1B049A4207D11A
:102AF000FB6803F070627B68DB6A1B069A4201D0B8
:102B0000012300E0002318461837BD4680BD00BFF2
:102B10000038024080B584B000AF786039607B68CF
:102B2000002B01D10123CCE0684B1B6803F00703A5
:102B30003A689A420CD9654B3A68D2B21A70634B24
:102B40001B6803F007033A689A4201D00123B8E0FA
:102B50007B681B6803F00203002B20D07B681B6896
:102B600003F00403002B05D0594B9B68584A43F4EB
:102B7000E05393607B681B6803F00803002B05D0CB
:102B8000534B9B68524A43F460439360504B9B689D
:102B900023F0F0027B689B684D4913438B607B6890
:102BA0001B6803F00103002B44D07B685B68012B9A
:102BB00007D1474B1B6803F40033002B19D10123C5
:102BC0007FE07B685B68022B03D07B685B68032B2C
:102BD00007D13F4B1B6803F00073002B09D1012381
:102BE0006FE03B4B1B6803F00203002B01D1012374
:102BF00067E0374B9B6823F003027B685B683449CE
:102C000013438B60FDF7C4FFF8600AE0FDF7C0FFD7
:102C10000246FB68D31A41F28832934201D903235A
:102C20004FE02B4B9B6803F00C027B685B689B00BA
:102C30009A42EBD1254B1B6803F007033A689A428E
:102C40000CD2224B3A68D2B21A70204B1B6803F0A8
:102C500007033A689A4201D0012332E07B681B687F
:102C600003F00403002B08D0194B9B6823F4E052B7
:102C70007B68DB68164913438B607B681B6803F035
:102C80000803002B09D0124B9B6823F460427B6839
:102C90001B69DB000E4913438B6000F021F80246EC
:102CA0000B4B9B681B0903F00F030A49CB5C22FA0C
:102CB00003F3094A1360094B1B681846FDF724FF0C
:102CC000002318461037BD4680BD00BF003C0240BF
:102CD00000380240647F000800000020040000204B
:102CE0002DE9B04F90B000AF00237B630023FB635E
:102CF00000233B630023BB63594B9B6803F00C0329
:102D0000082B0DD0082B00F2A180002B02D0042B41
:102D100003D09BE0534BBB639BE0534BBB6398E0FA
:102D20004F4B5B6803F03F037B634D4B5B6803F4E1
:102D30008003002B28D04A4B5B689B0900223B6232
:102D40007A623B6AC3F308000021474B03FB01F2A0
:102D5000002300FB03F31344434AA0FB0212FA6270
:102D60000A46BA62FA6A1344FB627B6B0022BB61BB
:102D7000FA61D7E90623D7E90A01FDF779FA024695
:102D80000B461346FB6353E0354B5B689B090022FF
:102D90003B617A613B69C3F3080A4FF0000B52466E
:102DA0005B464FF000004FF00001590141EAD2614B
:102DB000500102460B46B2EB0A0863EB0B094FF0D9
:102DC00000024FF000034FEA891343EA98634FEA89
:102DD0008812B2EB080463EB09054FF000024FF0D4
:102DE0000003EB0043EA5473E20014461D4614EB63
:102DF0000A033B6045EB0B037B604FF000024FF092
:102E00000003D7E9004529468B02214643EA915346
:102E100021468A02104619467B6B0022BB60FA608D
:102E2000D7E90223FDF724FA02460B461346FB635B
:102E30000B4B5B681B0C03F0030301335B003B632C
:102E4000FA6B3B6BB2FBF3F3BB6302E0054BBB6376
:102E500000BFBB6B18464037BD46BDE8B08F00BF12
:102E6000003802400024F40040787D0180B400AFB7
:102E7000034B1B681846BD465DF8047B704700BFD6
:102E80000000002084B080B584B000AF786007F106
:102E90001C0080E80E0097F82130012B23D17B68BD
:102EA0009B6B23F480327B689A637B68DB6823F436
:102EB000840323F040037A68D3607B68DB6823F4E3
:102EC00040127B68DA6097F82830012B05D17B68C7
:102ED000DB6843F480127B68DA60786801F0E8FA16
:102EE0000346FB731BE07B68DB6843F040027B68B2
:102EF000DA60786801F0DCFA0346FB7397F8253056
:102F0000002B06D17B689B6B43F480327B689A630D
:102F100005E07B689B6B23F480327B689A63BB7F00
:102F2000012B0BD17B689B6843F006027B689A609B
:102F30007B689B6843F020027B689A60FB7B1846A5
:102F40001037BD46BDE8804004B0704780B487B0FC
:102F500000AFF860B9601346FB71FB79022B65D1B5
:102F6000BB68414A934206D9BB68404A934202D2A9
:102F70000F237B6162E0BB683C4A934206D3BB6887
:102F80003B4A934202D20E237B6157E0BB68384A2A
:102F9000934206D3BB68374A934202D20D237B612A
:102FA0004CE0BB68334A934206D3BB68324A934233
:102FB00002D80C237B6141E0BB682F4A934206D9BB
:102FC000BB682E4A934202D80B237B6136E0BB6874
:102FD0002A4A934206D9BB68294A934202D80A2357
:102FE0007B612BE0BB68264A934206D9BB68254A21
:102FF000934202D209237B6120E0BB68214A9342BD
:1030000006D3BB68204A934202D808237B6115E0AF
:10301000BB681D4A934206D9BB681C4A934202D240
:1030200007237B610AE006237B6107E0FB79002B25
:1030300002D109237B6101E009237B61FB68DB6826
:1030400023F47052FB68DA60FB68DA687B699B02E4
:1030500003F470531A43FB68DA60002318461C37E8
:10306000BD465DF8047B7047BFACD800C0E1E4000A
:103070000024F400807306019F491A01FF2C3101DE
:103080003FA44C0100366E011FABA6010048E801C9
:1030900080B483B000AF78607B689B6843F0010226
:1030A0007B689A60002318460C37BD465DF8047BA8
:1030B000704780B483B000AF78607B689B6823F072
:1030C00001027B689A60002318460C37BD465DF804
:1030D000047B704780B584B000AF78600B46FB700E
:1030E0000023FB607B68DB6823F0C0427B68DA600A
:1030F000FB78012B15D17B68DB6843F000527B68BD
:10310000DA600A20FDF750FDFB680A33FB6078683F
:1031100001F03FF90346012B1ED0FB68C72BF0D905
:103120001AE0FB78002B15D17B68DB6843F0804206
:103130007B68DA600A20FDF737FDFB680A33FB6025
:10314000786801F026F90346002B05D0FB68C72BF1
:10315000F0D901E0012305E0FB68C82B01D1012370
:1031600000E0002318461037BD4680BD84B080B50E
:1031700086B000AF786007F1240080E80E000023DD
:10318000FB757B68FB6000233B6109E07A683B6963
:1031900040339B00134400225A603B6901333B617A
:1031A0003B690E2BF2D997F82E30002B1CD1FB680F
:1031B00003F500635B68FA6802F5006243F00203FE
:1031C00053607B689B6B43F400127B689A637B6857
:1031D0009B6B23F400227B689A637B689B6B23F4D0
:1031E00080227B689A630BE07B689B6B23F4001260
:1031F0007B689A637B689B6B43F400227B689A63CD
:10320000FB6803F560631A460023136097F82930C2
:10321000012B0DD197F82730002B04D100217868BD
:1032200000F068F908E00121786800F063F903E034
:103230000321786800F05EF91021786800F0FAF850
:103240000346002B01D00123FB75786800F024F9B8
:103250000346002B01D00123FB75FB6803F50063D7
:103260001A4600231361FB6803F500631A46002326
:103270005361FB6803F500631A460023D361002302
:103280003B6143E03B695A01FB68134403F510635B
:103290001B6803F00043B3F1004F18D13B69002BCA
:1032A0000AD13B695A01FB68134403F510631A46BF
:1032B0004FF00063136013E03B695A01FB6813444D
:1032C00003F510631A464FF09043136008E03B6922
:1032D0005A01FB68134403F510631A460023136078
:1032E0003B695A01FB68134403F510631A46002337
:1032F00013613B695A01FB68134403F510631A46D6
:103300004FF67F3393603B6901333B6197F824307C
:103310001A463B699342B5D300233B6143E03B69C6
:103320005A01FB68134403F530631B6803F0004344
:10333000B3F1004F18D13B69002B0AD13B695A0108
:10334000FB68134403F530631A464FF000631360C3
:1033500013E03B695A01FB68134403F530631A46D6
:103360004FF09043136008E03B695A01FB68134437
:1033700003F530631A46002313603B695A01FB686A
:10338000134403F530631A46002313613B695A0165
:10339000FB68134403F530631A464FF67F3393609E
:1033A0003B6901333B6197F824301A463B699342ED
:1033B000B5D3FB6803F500631B69FA6802F5006288
:1033C00023F4807313617B6800229A617B686FF03D
:1033D00080425A6197F82630002B05D17B689B69A3
:1033E00043F010027B689A617B689A69104B134323
:1033F0007A68936197F82A30002B05D07B689B6927
:1034000043F008027B689A6197F82E30012B07D1B0
:103410007B689B6943F0804343F004037A689361BF
:10342000FB7D18461837BD46BDE8804004B07047A4
:1034300000383C8080B485B000AF786039600023EC
:10344000FB60FB680133FB60FB68B3F1706F01D96F
:1034500003231BE07B681B69002BF2DA0023FB606F
:103460003B689B0143F020027B681A61FB680133D3
:10347000FB60FB68B3F1706F01D9032306E07B6842
:103480001B6903F02003202BF0D0002318461437CB
:10349000BD465DF8047B704780B485B000AF7860AE
:1034A0000023FB60FB680133FB60FB68B3F1706FC6
:1034B00001D9032318E07B681B69002BF2DA002393
:1034C000FB607B6810221A61FB680133FB60FB68BC
:1034D000B3F1706F01D9032306E07B681B6903F029
:1034E0001003102BF0D0002318461437BD465DF8AA
:1034F000047B704780B485B000AF78600B46FB70EA
:103500007B68FB60FB6803F500631A68FB78F96869
:1035100001F5006113430B60002318461437BD46C4
:103520005DF8047B704780B487B000AF78607B683B
:103530003B613B6903F500639B6803F00603FB6096
:10354000FB68002B02D10023FB750AE0FB68022B0D
:1035500002D0FB68062B02D10223FB7501E00F238A
:10356000FB75FB7D18461C37BD465DF8047B704734
:1035700080B485B000AF786039607B68FB603B68E1
:103580001B78BB603B685B78012B3AD1FB6803F585
:103590000063DA693B681B7803F00F03012101FA2D
:1035A00003F39BB2F96801F500611343CB61BB687B
:1035B0005A01FB68134403F510631B6803F40043CE
:1035C000002B55D1BB685A01FB68134403F5106307
:1035D0001A683B689B68C3F30A013B681B799B042C
:1035E0001943BB689B050B431343BA685101FA6842
:1035F0000A4402F5106243F0805343F40043136021
:1036000036E0FB6803F50063DA693B681B7803F07A
:103610000F03012101FA03F31B04F96801F50061AE
:103620001343CB61BB685A01FB68134403F5306355
:103630001B6803F40043002B1AD1BB685A01FB68D6
:10364000134403F530631A683B689B68C3F30A01AF
:103650003B681B799B040B431343BA685101FA681A
:103660000A4402F5306243F0805343F40043136090
:10367000002318461437BD465DF8047B70470000F0
:1036800080B485B000AF786039607B68FB603B68D0
:103690001B78BB603B685B78012B61D1BB685A012A
:1036A000FB68134403F510631B6803F00043B3F198
:1036B000004F1FD1BB685A01FB68134403F5106328
:1036C0001B68BA685101FA680A4402F5106243F0B7
:1036D00000631360BB685A01FB68134403F5106371
:1036E0001B68BA685101FA680A4402F5106243F097
:1036F00080431360FB6803F50063DA6B3B681B785B
:1037000003F00F03012101FA03F39BB2DB43F968D5
:1037100001F500611340CB63FB6803F50063DA69D0
:103720003B681B7803F00F03012101FA03F39BB2FE
:10373000DB43F96801F500611340CB61BB685A01B6
:10374000FB68134403F510631A68BB685901FB68F2
:103750000B4403F510631946354B13400B6060E0D2
:10376000BB685A01FB68134403F530631B6803F020
:103770000043B3F1004F1FD1BB685A01FB681344EB
:1037800003F530631B68BA685101FA680A4402F510
:10379000306243F000631360BB685A01FB68134456
:1037A00003F530631B68BA685101FA680A4402F5F0
:1037B000306243F080431360FB6803F50063DA6B0B
:1037C0003B681B7803F00F03012101FA03F31B048C
:1037D000DB43F96801F500611340CB63FB6803F537
:1037E0000063DA693B681B7803F00F03012101FADB
:1037F00003F31B04DB43F96801F500611340CB615F
:10380000BB685A01FB68134403F530631A68BB6850
:103810005901FB680B4403F530631946054B13400F
:103820000B60002318461437BD465DF8047B7047D3
:10383000007833EC0078F3EF80B58AB002AFF8601F
:10384000B9601346FB71FB68FB61BB681B78BB6109
:10385000BB685B78012B40F07F81BB681B69002B44
:1038600032D1BB695A01FB69134403F510631B692C
:10387000BA695101FA690A4402F5106223F0FF5354
:1038800023F4C0131361BB695A01FB69134403F5A8
:1038900010631B69BA695101FA690A4402F51062A2
:1038A00043F400231361BB695A01FB69134403F518
:1038B00010631B69BA695101FA690A4402F5106282
:1038C000DB0CDB04136197E0BB695A01FB6913440D
:1038D00003F510631B69BA695101FA690A4402F5DC
:1038E0001062DB0CDB041361BB695A01FB691344F2
:1038F00003F510631B69BA695101FA690A4402F5BC
:10390000106223F0FF5323F4C0131361BB69002B33
:103910001AD1BB681A69BB689B689A4203D9BB6815
:103920009A68BB681A61BB695A01FB69134403F5C5
:1039300010631B69BA695101FA690A4402F5106201
:1039400043F40023136144E0BB681A69BB689B68B9
:1039500013445A1EBB689B68B2FBF3F3FB82BB693E
:103960005A01FB69134403F510631A69FB8AD904F1
:10397000A44B0B40B9694801F969014401F5106194
:1039800013430B61BB681B79012B22D1BB695A0120
:10399000FB69134403F510631B69BA695101FA69A5
:1039A0000A4402F5106223F0C0431361BB695A0157
:1039B000FB69134403F510631A69FB8A5B0703F084
:1039C000C043B9694801F969014401F51061134325
:1039D0000B61BB695A01FB69134403F510631A6953
:1039E000BB681B69C3F31203B9694801F969014453
:1039F00001F5106113430B61FB79012B4BD1BB68BF
:103A0000DB69002B09D0BB695A01FB69134403F53C
:103A100010631A46BB68DB695361BB681B79012BD5
:103A200028D1FB6903F500639B6803F48073002BC6
:103A300010D1BB695A01FB69134403F510631B687D
:103A4000BA695101FA690A4402F5106243F0005361
:103A500013600FE0BB695A01FB69134403F510635F
:103A60001B68BA695101FA690A4402F5106243F011
:103A700080531360BB695A01FB69134403F510635B
:103A80001B68BA695101FA690A4402F5106243F0F1
:103A90000443136066E1BB695A01FB69134403F5F3
:103AA00010631B68BA695101FA690A4402F5106291
:103AB00043F004431360BB681B79012B15D0BB682E
:103AC0001B69002B00F04E81FB6903F500635A6B04
:103AD000BB681B7803F00F03012101FA03F3F969B6
:103AE00001F5006113434B633CE1FB6903F500639F
:103AF0009B6803F48073002B10D1BB695A01FB69EA
:103B0000134403F510631B68BA695101FA690A444A
:103B100002F5106243F0005313600FE0BB695A01D5
:103B2000FB69134403F510631B68BA695101FA6914
:103B30000A4402F5106243F080531360BB68D968F1
:103B4000BB681A78BB681B6998B2FB79009303467F
:103B5000F86800F0B9F905E1BB695A01FB69134443
:103B600003F530631B69BA695101FA690A4402F529
:103B70003062DB0CDB041361BB695A01FB6913443F
:103B800003F530631B69BA695101FA690A4402F509
:103B9000306223F0FF5323F4C0131361BB69002B81
:103BA00032D1BB681B69002B03D0BB689A68BB6825
:103BB0001A61BB689A68BB681A62BB695A01FB69E3
:103BC000134403F530631A69BB681B6AC3F312031D
:103BD000B9694801F969014401F5306113430B618A
:103BE000BB695A01FB69134403F530631B69BA6969
:103BF0005101FA690A4402F5306243F4002313616B
:103C000062E000BF0000F81FBB681B69002B23D1D6
:103C1000BB695A01FB69134403F530631A69BB6839
:103C20009B68C3F31203B9694801F969014401F5BE
:103C3000306113430B61BB695A01FB69134403F5FF
:103C400030631B69BA695101FA690A4402F53062AE
:103C500043F40023136137E0BB681A69BB689B68B3
:103C600013445A1EBB689B68B2FBF3F3FB82BB682C
:103C70009B68FA8A03FB02F2BB681A62BB695A01AD
:103C8000FB69134403F530631A69FB8AD904384B86
:103C90000B40B9694801F969014401F530611343EA
:103CA0000B61BB695A01FB69134403F530631A6960
:103CB000BB681B6AC3F31203B9694801F96901447F
:103CC00001F5306113430B61FB79012B0DD1BB680A
:103CD000DB68002B09D0BB68D968BB695A01FB6956
:103CE000134403F530630A465A61BB681B79012B04
:103CF00028D1FB6903F500639B6803F48073002BF4
:103D000010D1BB695A01FB69134403F530631B688A
:103D1000BA695101FA690A4402F5306243F000536E
:103D200013600FE0BB695A01FB69134403F530636C
:103D30001B68BA695101FA690A4402F5306243F01E
:103D400080531360BB695A01FB69134403F5306368
:103D50001B68BA695101FA690A4402F5306243F0FE
:103D600004431360002318462037BD4680BD00BFC2
:103D70000000F81F80B487B000AF7860396000237E
:103D8000FB600023FB757B683B613B685B78012B24
:103D90004AD13B681B785A013B69134403F5106311
:103DA0001B6803F00043B3F1004F40F086803B688E
:103DB0001B785A013B69134403F510631B683A688A
:103DC000127851013A690A4402F5106243F0006327
:103DD00013603B681B785A013B69134403F5106379
:103DE0001B683A68127851013A690A4402F5106278
:103DF00043F080431360FB680133FB60FB6842F2D1
:103E00001072934202D90123FB7556E03B681B7880
:103E10005A013B69134403F510631B6803F0004328
:103E2000B3F1004FE7D048E03B681B785A013B698B
:103E3000134403F530631B6803F00043B3F1004FF4
:103E40003BD13B681B785A013B69134403F530634F
:103E50001B683A68127851013A690A4402F53062E7
:103E600043F0006313603B681B785A013B691344BD
:103E700003F530631B683A68127851013A690A44C5
:103E800002F5306243F080431360FB680133FB604E
:103E9000FB6842F21072934202D90123FB750CE0D9
:103EA0003B681B785A013B69134403F530631B6878
:103EB00003F00043B3F1004FE7D0FB7D18461C37F9
:103EC000BD465DF8047B704780B489B000AFF860F0
:103ED000B96011461A460B46FB711346BB80FB685E
:103EE0007B61BB68FB6197F82830002B23D1BB882E
:103EF00003339B083B610023BB6118E0FB791A0385
:103F00007B69134403F580531A46FB691B681360F1
:103F1000FB690133FB61FB690133FB61FB69013321
:103F2000FB61FB690133FB61BB690133BB61BA69AA
:103F30003B699A42E2D3002318462437BD465DF818
:103F4000047B704780B48BB000AFF860B960134653
:103F5000FB80FB68BB61BB687B62FB889B089BB2F4
:103F60007B61FB8803F00303FB8300233B6214E0C7
:103F7000BB6903F580531A687B6A1A607B6A013358
:103F80007B627B6A01337B627B6A01337B627B6A83
:103F900001337B623B6A01333B623A6A7B699A4236
:103FA000E6D3FB8B002B1ED000233B62BB6903F5DD
:103FB00080531A4607F1100312681A603A693B6A87
:103FC000DBB2DB0022FA03F3DAB27B6A1A703B6AD7
:103FD00001333B627B6A01337B62FB8B013BFB83DA
:103FE000FB8B002BEAD17B6A18462C37BD465DF867
:103FF000047B704780B485B000AF786039607B681F
:10400000FB603B681B78BB603B685B78012B2CD165
:10401000BB685A01FB68134403F510631B68002B4F
:1040200012DBBB68002B0FD0BB685A01FB6813443E
:1040300003F510631B68BA685101FA680A4402F577
:10404000106223F080431360BB685A01FB6813447D
:1040500003F510631B68BA685101FA680A4402F557
:10406000106243F4001313602BE0BB685A01FB6835
:10407000134403F530631B68002B12DBBB68002B75
:104080000FD0BB685A01FB68134403F530631B680B
:10409000BA685101FA680A4402F5306223F080439D
:1040A0001360BB685A01FB68134403F530631B6857
:1040B000BA685101FA680A4402F5306243F4001309
:1040C0001360002318461437BD465DF8047B704723
:1040D00080B485B000AF786039607B68FB603B6876
:1040E0001B78BB603B685B78012B28D1BB685A0109
:1040F000FB68134403F510631B68BA685101FA6842
:104100000A4402F5106223F4001313603B681B7924
:10411000032B03D03B681B79022B38D1BB685A01B3
:10412000FB68134403F510631B68BA685101FA6811
:104130000A4402F5106243F08053136027E0BB6825
:104140005A01FB68134403F530631B68BA685101D8
:10415000FA680A4402F5306223F4001313603B68E6
:104160001B79032B03D03B681B79022B0FD1BB6853
:104170005A01FB68134403F530631B68BA685101A8
:10418000FA680A4402F5306243F08053136000235A
:1041900018461437BD465DF8047B704780B485B07F
:1041A00000AF78600B46FB707B68FB60FB6803F533
:1041B00000631B68FA6802F5006223F4FE63136073
:1041C000FB6803F500631A68FB781B0103F4FE63C8
:1041D000F96801F5006113430B600023184614379A
:1041E000BD465DF8047B704780B485B000AF786051
:1041F0007B68FB60FB6803F560631B68FA6802F587
:10420000606223F003031360FB6803F500635B68DF
:10421000FA6802F5006223F0020353600023184697
:104220001437BD465DF8047B704780B485B000AF9D
:1042300078607B68FB60FB6803F560631B68FA6865
:1042400002F5606223F003031360FB6803F500636B
:104250005B68FA6802F5006243F0020353600023D2
:1042600018461437BD465DF8047B704780B485B0AE
:1042700000AF78607B685B69FB607B689B69FA686C
:104280001340FB60FB6818461437BD465DF8047B9D
:10429000704780B485B000AF78607B68FB60FB68D6
:1042A00003F500639B69BB60FB6803F50063DB6992
:1042B000BA681340BB60BB681B0C18461437BD4678
:1042C0005DF8047B704780B485B000AF78607B6890
:1042D000FB60FB6803F500639B69BB60FB6803F54B
:1042E0000063DB69BA681340BB60BB689BB21846C9
:1042F0001437BD465DF8047B704780B485B000AFCD
:1043000078600B46FB707B68FB60FB785A01FB68AA
:10431000134403F530639B68BB60FB6803F50063DF
:104320005B69BA681340BB60BB6818461437BD466A
:104330005DF8047B704780B487B000AF78600B46AF
:10434000FB707B687B617B6903F500631B693B61E4
:104350007B6903F500635B6BFB60FB7803F00F0385
:10436000FA6822FA03F3DB01DBB23A6913433B61DB
:10437000FB785A017B69134403F510639B683A6923
:104380001340BB60BB6818461C37BD465DF8047B14
:10439000704780B483B000AF78607B685B6903F0DE
:1043A000010318460C37BD465DF8047B704780B4A6
:1043B00085B000AF78607B68FB60FB6803F5106335
:1043C0001B68FA6802F5106223F4FF6323F0070309
:1043D0001360FB6803F500635B68FA6802F500622E
:1043E00043F480735360002318461437BD465DF8CC
:1043F000047B704780B487B000AFF8600B467A60EA
:10440000FB72FB687B61FB683C3304331B683B61D8
:104410003B69264A93420AD97B6903F530631B68DE
:1044200003F00043B3F1004F01D1002337E07B6973
:1044300003F530631A46002313617B6903F530638B
:104440001B697A6902F5306243F4002313617B69CA
:1044500003F530631B697A6902F5306243F0180393
:1044600013617B6903F530631B697A6902F5306279
:1044700043F0C0431361FB7A012B0FD17B6903F535
:1044800030631A467B6853617B6903F530631B68B0
:104490007A6902F5306243F08023136000231846E6
:1044A0001C37BD465DF8047B704700BF0A30544F8F
:1044B00080B485B000AF78600023FB60FB680133F7
:1044C000FB60FB68B3F1706F01D9032322E07B68C6
:1044D0001B69002BF2DA0A23FB6002E0FB68013B58
:1044E000FB60FB68002BF9D17B681B6943F001027C
:1044F0007B681A61FB680133FB60FB68B3F1706F86
:1045000001D9032306E07B681B6903F00103012B3B
:10451000F0D0002318461437BD465DF8047B704781
:1045200080B584B000AF78600B46FB704FF4077025
:1045300002F0BCFCF860FB68002B09D17B68D3F863
:10454000D4227B68B032002143F822100223D4E049
:104550004FF407720021F86802F0F6FE7B68D3F88A
:10456000D4227B68B032F96843F822107B68D3F814
:10457000D4227B68B03253F822207B68C3F8BC2277
:104580007B681B7C002B38D15E4B19784FF400738D
:104590000222786802F067FB5A4B1B7803F00F0287
:1045A000796813469B0013449B000B44233301227C
:1045B0001A70554B19784FF400730222786802F094
:1045C00052FB514B1B7803F00F02796813469B0096
:1045D00013449B000B4403F2631301221A704B4BEC
:1045E0001B7803F00F02796813469B0013449B006D
:1045F0000B441C3310221A6035E0424B19784023DB
:104600000222786802F02FFB3E4B1B7803F00F026A
:10461000796813469B0013449B000B44233301220B
:104620001A70394B197840230222786802F01BFB7C
:10463000354B1B7803F00F02796813469B00134437
:104640009B000B4403F2631301221A702F4B1B785B
:1046500003F00F02796813469B0013449B000B4440
:104660001C3310221A60294B19780823032278681A
:1046700002F0F9FA254B1B7803F00F027968134614
:104680009B0013449B000B44233301221A70FB68E8
:104690000022C3F804227B68D3F8D4327A68B0339E
:1046A0009B0013445B681B689847FB680022C3F8B3
:1046B0001422FB680022C3F81822FB68D3F80432E6
:1046C000002B01D1022318E07B681B7C002B0AD150
:1046D0000D4B1978FB68D3F804224FF40073786807
:1046E00002F0B0FB08E0084B1978FB68D3F804220D
:1046F0004023786802F0A6FB002318461037BD4619
:1047000080BD00BF93000020940000209500002091
:1047100080B582B000AF78600B46FB703A4B1B78D7
:104720001946786802F0C5FA374B1B7803F00F0280
:10473000796813469B0013449B000B4423330022EB
:104740001A70324B1B781946786802F0B2FA2F4B78
:104750001B7803F00F02796813469B0013449B00FB
:104760000B4403F2631300221A70294B1B7819467D
:10477000786802F09EFA264B1B7803F00F027968E6
:1047800013469B0013449B000B44233300221A70F2
:104790001F4B1B7803F00F02796813469B001344EC
:1047A0009B000B441C3300221A607B68D3F8D42290
:1047B0007B68B03253F82230002B1FD07B68D3F8CF
:1047C000D4327A68B0339B0013445B685B689847C7
:1047D0007B68D3F8D4227B68B03253F82230184675
:1047E00002F072FB7B68D3F8D4227B68B0320021E0
:1047F00043F822107B680022C3F8BC22002318462D
:104800000837BD4680BD00BF930000209400002003
:104810009500002080B586B000AF786039607B6875
:10482000D3F8D4227B68B03253F822303B610023A6
:104830007B7300237B810023FB753B69002B01D137
:104840000323BFE03B681B7803F06003002B50D0CC
:10485000202B40F0AF803B68DB88002B3AD03B68D0
:104860001B785BB2002B1BDA7B68D3F8D4327A68F2
:10487000B0339B0013445B689B683A685078396991
:104880003A68D28898473B68DB88072B28BF072304
:10489000FB813B69FA891946786801F0A9FD90E02F
:1048A0003B685A783B6983F800223B68DB883F2BE2
:1048B00003D83B68DB88DAB200E040223B6983F82A
:1048C000012239693B6993F801321A46786801F090
:1048D000BEFD76E07B68D3F8D4327A68B0339B00B3
:1048E00013445B689B683A6850780022396898479F
:1048F00067E03B685B780B2B51D801A252F823F09C
:1049000031490008AD4900089F4900089F49000847
:104910009F4900089F4900089F4900089F490008D7
:104920009F4900089F4900085B4900088549000825
:104930007B6893F89C32DBB2032B07D107F10A03A3
:1049400002221946786801F053FD32E03968786830
:1049500001F0D1FC0323FB752BE07B6893F89C32BC
:10496000DBB2032B07D107F10D030122194678684A
:1049700001F03EFD1DE03968786801F0BCFC0323BE
:10498000FB7516E07B6893F89C32DBB2032B0FD0EB
:104990003968786801F0AFFC0323FB7508E03968DB
:1049A000786801F0A8FC0323FB7502E000BF08E073
:1049B00000BF06E03968786801F09DFC0323FB75B1
:1049C00000BFFB7D18461837BD4680BD80B584B05A
:1049D00000AF78600B46FB707B68D3F8C832FB6091
:1049E0007B68D3F8D4227B68B03253F82230002B96
:1049F00001D1032365E07B68D3F8D4227B68B03211
:104A000053F82230BB60FB7803F00F02796813463D
:104A10009B0013449B000B4414331B68002B2FD0C6
:104A2000FB7803F00F02796813469B0013449B0048
:104A30000B4414331A68FB7803F00F01F8680B4637
:104A4000DB000B449B0003441C331B68B2FBF3F1F7
:104A500001FB03F3D31A002B12D1FB7803F00F02F2
:104A6000796813469B0013449B000B4414330022C7
:104A70001A60F97800230022786802F0C2F91FE07A
:104A8000BB680022C3F814227B68D3F8D4327A685A
:104A9000B0339B0013445B681B69002B10D07B680C
:104AA000D3F8D4327A68B0339B0013445B681B6937
:104AB000BA68D2F80802BA6802F50471FA78984721
:104AC000002318461037BD4680BD80B584B000AFC6
:104AD00078600B46FB707B68D3F8D4227B68B032D9
:104AE00053F82230FB607B68D3F8D4227B68B03265
:104AF00053F82230002B01D103231AE0FB7819462A
:104B0000786802F0C0F90246FB68C3F80C227B68A3
:104B1000D3F8D4327A68B0339B0013445B68DB6807
:104B2000FA68D2F80402FA6802F50372114698474F
:104B3000002318461037BD4680BD80B584B000AF55
:104B400078607B68D3F8D4227B68B03253F8223087
:104B5000FB60FB68002B01D1032324E07B68D3F8C2
:104B6000D4327A68B0339B0013445B68002B19D0B1
:104B7000FB6893F80032FF2B14D07B68D3F8D43253
:104B80007A68B0339B0013445B689B68FA6892F8BC
:104B90000002F968FA6892F801229847FB68FF2240
:104BA00083F80022002318461037BD4680BD000060
:104BB00080B586B000AF78608221184800F062FDB1
:104BC00078610121154800F05DFD386181211348AD
:104BD00000F058FDF8607B69002B02D07B69102241
:104BE0009A713B69002B06D03B69002242F04002DB
:104BF0001A7100225A71FB68002B06D0FB68002254
:104C000042F040021A7100225A717B6843221A80D6
:104C1000024B18461837BD4680BD00BF500000202B
:104C200080B586B000AF78608221184800F02AFD78
:104C300078610121154800F025FD38618121134874
:104C400000F020FDF8607B69002B02D07B69102208
:104C50009A713B69002B06D03B6900221A71002231
:104C600042F002025A71FB68002B06D0FB6800225A
:104C70001A71002242F002025A717B6843221A80A4
:104C8000024B18461837BD4680BD00BF50000020BB
:104C900080B586B000AF78608221184800F0F2FC41
:104CA00078610121154800F0EDFC3861812113483D
:104CB00000F0E8FCF8607B69002B02D07B691022D1
:104CC0009A713B69002B06D03B69002242F04002FA
:104CD0001A7100225A71FB68002B06D0FB68002273
:104CE00042F040021A7100225A717B6843221A80F6
:104CF000024B18461837BD4680BD00BF500000204B
:104D000080B483B000AF78607B680A221A80034BBE
:104D100018460C37BD465DF8047B70470C00002038
:104D200080B483B000AF786039603B68002B01D15C
:104D3000032309E07B68D3F8D4327A68B0339B0050
:104D400013443A685A60002318460C37BD465DF894
:104D5000047B704780B487B000AFF860B9607A60B8
:104D6000FB68D3F8D422FB68B03253F822307B6161
:104D70007B69002B01D1032308E07B69BA68C3F883
:104D800008227B697A68C3F81022002318461C3772
:104D9000BD465DF8047B704780B485B000AF786095
:104DA00039607B68D3F8D4227B68B03253F8223064
:104DB000FB60FB68002B01D1032304E0FB683A6829
:104DC000C3F80422002318461437BD465DF8047B5F
:104DD0007047000080B584B000AF78607B68D3F87E
:104DE000D4227B68B03253F82230BB600123FB73BE
:104DF000BB68002B01D1032325E0BB68D3F8143234
:104E0000002B1FD1BB680122C3F81422104B1B7862
:104E100003F00F02BB68D3F81012786813469B00AA
:104E200013449B00034414331960094B1978BB6881
:104E3000D3F80822BB68D3F81032786801F0E1FF9C
:104E40000023FB73FB7B18461037BD4680BD00BFB7
:104E50009300002080B584B000AF78607B68D3F801
:104E6000D4227B68B03253F82230FB607B68D3F8E1
:104E7000D4227B68B03253F82230002B01D10323B7
:104E800018E07B681B7C002B0AD10C4B1978FB685F
:104E9000D3F804224FF40073786801F0D3FF08E0E0
:104EA000064B1978FB68D3F804224023786801F098
:104EB000C9FF002318461037BD4680BD940000206E
:104EC00080B586B000AFF860B9601346FB71FB682F
:104ED000002B01D103231FE0FB680022C3F8B82296
:104EE000FB680022C3F8C422FB680022C3F8D0226A
:104EF000BB68002B03D0FB68BA68C3F8B422FB6818
:104F0000012283F89C22FB68FA791A70F86801F094
:104F100043FE0346FB75FB7D18461837BD4680BD32
:104F200080B584B000AF786039600023FB813B68B6
:104F3000002B01D1032325E07B683A68C3F8B8222F
:104F40007B68D3F8D4227B68AE3253F82230DB6A18
:104F5000002B0FD07B68D3F8D4227B68AE3253F895
:104F60002230DB6A07F10E021046984702467B6842
:104F7000C3F8D0227B68D3F8D8325A1C7B68C3F8B8
:104F8000D822002318461037BD4680BD80B582B0B8
:104F900000AF7860786801F04BFE0346184608378A
:104FA000BD4680BD80B483B000AF78600023184652
:104FB0000C37BD465DF8047B704780B584B000AF08
:104FC00078600B46FB700023FB737B68D3F8B83224
:104FD000002B09D07B68D3F8B8321B68FA781146E9
:104FE000786898470346FB73FB7B18461037BD462D
:104FF00080BD80B584B000AF78600B46FB700023A5
:10500000FB737B68D3F8B8325B68FA78114678682E
:1050100098470346002B01D00323FB73FB7B184604
:105020001037BD4680BD80B584B000AF7860396070
:105030007B6803F2AA233968184601F022F97B68DD
:105040000122C3F894227B68B3F8B0321A467B6819
:10505000C3F898227B6893F8AA3203F01F03022B4F
:105060001AD0022B22D8002B02D0012B0AD01DE02F
:105070007B6803F2AA231946786800F077FB0346A1
:10508000FB7320E07B6803F2AA231946786800F0DE
:10509000DFFB0346FB7316E07B6803F2AA23194685
:1050A000786800F041FC0346FB730CE07B6893F8E2
:1050B000AA3223F07F03DBB21946786801F018FEAC
:1050C0000346FB7300BFFB7B18461037BD4680BD0F
:1050D00080B586B000AFF8600B467A60FB720023A3
:1050E000FB75FB7A002B77D1FB6803F5AA733B6154
:1050F000FB68D3F89432032B40F0A1803B695B68D6
:105100003A69928993421CD93B695B683A699289F2
:105110009A1A3B695A603B691B693A6992891A4439
:105120003B691A613B6919693B699B891A463B696E
:105130005B68934238BF13461A46F86801F0A8F935
:105140007DE0FB6893F8AA3203F01F03022B14D012
:10515000022B1DD8002B02D0012B03D018E0002316
:10516000BB7518E0FB68B3F8AE32DBB21946F868DD
:1051700000F06EFA0346BB750DE0FB68B3F8AE3283
:10518000DBB21946F86800F070FA0346BB7502E01E
:105190000023BB7500BFBB7D002B19D1FB6893F8C2
:1051A0009C32DBB2032B13D1BA7DFB68AE3253F8CD
:1051B00022301B69002B0BD0BA7DFB68C3F8D422C8
:1051C000BA7DFB68AE3253F822301B69F868984705
:1051D000F86801F06EF932E0FB7A03F07F03DBB28E
:1051E0001946F86800F041FA0346BB75BB7DFF2BFA
:1051F00025D0BB7D002B22D1FB6893F89C32DBB21B
:10520000032B17D1BA7DFB68AE3253F822309B696D
:10521000002B0FD0BA7DFB68C3F8D422BA7DFB689F
:10522000AE3253F822309B69FA7A1146F8689847F3
:105230000346FB75FB7D002B01D0FB7D00E00023C6
:1052400018461837BD4680BD80B586B000AFF860FF
:105250000B467A60FB72FB7A002B78D1FB68143323
:105260003B61FB68D3F89432022B63D13B695B68E6
:105270003A69928993421CD93B695B683A69928981
:105280009A1A3B695A603B691B693A6992891A44C8
:105290003B691A613B6919693B695B681A46F868A2
:1052A00001F0C4F8002300220021F86801F0CAFDD3
:1052B00040E03B699B891A463B695B689A421CD176
:1052C0003B691B683A699289934216D33B691A6815
:1052D000FB68D3F898329A420FD200220021F86876
:1052E00001F0A4F8FB680022C3F8982200230022F2
:1052F0000021F86801F0A6FD1CE0FB6893F89C32E1
:10530000DBB2032B0FD1FB68D3F8B832DB68002B7C
:1053100009D0FB680022C3F8D422FB68D3F8B83266
:10532000DB68F86898478021F86801F0E1FCF868CC
:1053300001F0D2F8FB6893F8A032002B3AD0F8685D
:10534000FFF730FEFB68002283F8A02232E0FB7AF0
:1053500063F07F03DBB21946F86800F086F9034674
:10536000FB75FB7DFF2B25D0FB7D002B22D1FB683D
:1053700093F89C32DBB2032B1CD1FA7DFB68AE3272
:1053800053F822305B69002B14D0FA7DFB68C3F818
:10539000D422FA7DFB68AE3253F822305B69FA7A88
:1053A0001146F86898470346BB75BB7D002B01D0BA
:1053B000BB7D00E0002318461837BD4680BD80B590
:1053C00084B000AF78600023FB737B68012283F810
:1053D0009C227B680022C3F894227B6800225A60DA
:1053E0007B680022C3F8A4227B68002283F8A022F5
:1053F0007B68D3F8B832002B14D07B68D3F8B8326E
:105400005B68002B0ED07B68D3F8B8325B687A6893
:105410005268D2B21146786898470346002B01D0F3
:105420000323FB73402300220021786801F01BFC5A
:105430007B68012283F863217B684022A3F8602106
:10544000402300228021786801F00DFC7B68012256
:1054500083F823207B6840221A84FB7B1846103790
:10546000BD4680BD80B483B000AF78600B46FB7052
:105470007B68FA781A74002318460C37BD465DF82D
:10548000047B704780B483B000AF78607B6893F88A
:105490009C32DBB2042B06D07B6893F89C32DAB2E4
:1054A0007B6883F89D227B68042283F89C2200237A
:1054B00018460C37BD465DF8047B704780B483B056
:1054C00000AF78607B6893F89C32DBB2042B06D186
:1054D0007B6893F89D32DAB27B6883F89C220023C4
:1054E00018460C37BD465DF8047B704780B582B026
:1054F00000AF78607B6893F89C32DBB2032B10D14D
:105500007B68D3F8B832002B0BD07B68D3F8B83265
:10551000DB69002B05D07B68D3F8B832DB6978688B
:105520009847002318460837BD4680BD80B582B035
:1055300000AF78600B46FB707B68D3F8D4227B68A1
:10554000AE3253F82230002B01D103231CE07B68DC
:1055500093F89C32DBB2032B15D17B68D3F8D422AD
:105560007B68AE3253F822301B6A002B0BD07B686D
:10557000D3F8D4227B68AE3253F822301B6AFA7813
:10558000114678689847002318460837BD4680BD05
:1055900080B582B000AF78600B46FB707B68D3F8B3
:1055A000D4227B68AE3253F82230002B01D1032382
:1055B0001CE07B6893F89C32DBB2032B15D17B682F
:1055C000D3F8D4227B68AE3253F822305B6A002BCA
:1055D0000BD07B68D3F8D4227B68AE3253F82230EC
:1055E0005B6AFA78114678689847002318460837AE
:1055F000BD4680BD80B483B000AF786000231846FC
:105600000C37BD465DF8047B704780B584B000AFB1
:1056100078600023FB737B68012283F89C227B68FF
:10562000D3F8B832002B0ED07B68D3F8B8325B6861
:105630007A685268D2B21146786898470346002BC0
:1056400001D00323FB73FB7B18461037BD4680BD9A
:1056500080B483B000AF78600B46FB70002318461F
:105660000C37BD465DF8047B704780B483B000AF53
:1056700078600B46FB70002318460C37BD465DF87A
:10568000047B704780B586B000AF78600B46FB7036
:105690007B687B617B68FB6000233B61FB685B8808
:1056A0009BB2FA68127893421FD9FB681B787B8102
:1056B00013E007F10A031946786900F01BF87861D6
:1056C0007B695B78052B08D17B693B613B699B78E3
:1056D000FA789A4208D000233B61FB685B889AB253
:1056E0007B899A42E5D800E000BF3B69184618372D
:1056F000BD4680BD80B485B000AF786039607B68FE
:10570000FB603B681B88FA68127813449AB23B68C6
:105710001A80FB681B781A467B681344FB60FB68A1
:1057200018461437BD465DF8047B704780B487B0D7
:1057300000AF78607B687B617B691B787B827B69CB
:1057400001337B617B691B783B82B7F910301B0208
:105750001AB2B7F9123013431BB2FB81FB8918460A
:105760001C37BD465DF8047B7047000080B584B0EF
:1057700000AF786039600023FB733B681B7803F04F
:105780006003402B05D0402B57D8002B0FD0202B87
:1057900053D17B68D3F8D4227B68AE3253F82230E1
:1057A0009B683968786898470346FB734AE03B6812
:1057B0005B78092B3BD801A252F823F0115800085E
:1057C000255800082F5800081B5800082F580008BB
:1057D000EF570008E55700082F5800080758000841
:1057E000F95700083968786800F03EFA24E0396813
:1057F000786800F0A3FB1FE03968786800F0E2FBEE
:105800000346FB7318E03968786800F085FC13E004
:105810003968786800F0B6FC0EE03968786800F006
:10582000E5FC09E03968786800F009FD04E03968B2
:10583000786800F060FD00BF04E03968786800F027
:105840005AFD00BFFB7B18461037BD4680BD00BF28
:1058500080B584B000AF786039600023FB733B688B
:105860001B7803F06003402B05D0402B52D8002B4F
:1058700001D0202B4ED17B6893F89C32DBB2013BE8
:10588000022B40D83B689B88DBB2012B36D83B68A3
:105890009B88DBB219467868FFF7DAFE0346BB73D4
:1058A000BB7BFF2B1DD0BB7B002B1AD1BA7B7B6847
:1058B000AE3253F822309B68002B0FD0BA7B7B6846
:1058C000C3F8D422BA7B7B68AE3253F822309B688F
:1058D0003968786898470346FB7304E00323FB7339
:1058E00001E00323FB733B68DB88002B10D1FB7BBB
:1058F000002B0DD1786800F0DCFD09E0396878688C
:1059000000F0F9FC04E03968786800F0F4FC00E08D
:1059100000BF04E03968786800F0EDFC00BFFB7B55
:1059200018461037BD4680BD80B584B000AF7860A2
:1059300039600023FB733B689B88BB733B681B7813
:1059400003F06003402B07D0402B00F28181002B35
:105950002AD0202B40F07C81BB7B19467868FFF76A
:1059600084FE03467B737B7BFF2B00F076817B7B81
:10597000002B40F072817A7B7B68C3F8D4227A7B5B
:105980007B68AE3253F822309B68002B00F06581B3
:105990007A7B7B68AE3253F822309B68396878682E
:1059A00098470346FB7358E13B685B78032B08D0AC
:1059B000032B00F34781002B00F09B80012B3CD090
:1059C00040E17B6893F89C32DBB2022B02D0032BC0
:1059D00016D02CE0BB7B002B0DD0BB7B802B0AD0DC
:1059E000BB7B1946786801F083F98021786801F063
:1059F0007FF900BF20E03968786800F07CFC1BE08C
:105A00003B685B88002B0ED1BB7B002B0BD0BB7B94
:105A1000802B08D03B68DB88002B04D1BB7B194668
:105A2000786801F065F9786800F043FD04E03968B2
:105A3000786800F060FC00BF09E17B6893F89C3255
:105A4000DBB2022B02D0032B16D04BE0BB7B002B2A
:105A50000DD0BB7B802B0AD0BB7B1946786801F048
:105A600047F98021786801F043F900BF40E03968C8
:105A7000786800F040FC3BE03B685B88002B36D147
:105A8000BB7B03F07F03002B04D0BB7B19467868F7
:105A900001F04DF9786800F00CFDBB7B1946786881
:105AA000FFF7E3FD03467B737B7BFF2B1FD07B7BE4
:105AB000002B1CD17A7B7B68C3F8D4227A7B7B686D
:105AC000AE3253F822309B68002B10D07A7B7B6873
:105AD000AE3253F822309B6839687868984703469D
